{
    "_format": "hh-sol-artifact-1",
    "contractName": "Stonedgoblins",
    "sourceName": "contracts/Stonedgoblins.sol",
    "abi": [
        {
            "inputs": [
                {
                    "internalType": "string",
                    "name": "_name",
                    "type": "string"
                },
                {
                    "internalType": "string",
                    "name": "_symbol",
                    "type": "string"
                },
                {
                    "internalType": "string",
                    "name": "_initBaseURI",
                    "type": "string"
                }
            ],
            "stateMutability": "nonpayable",
            "type": "constructor"
        },
        {
            "inputs": [],
            "name": "ApprovalCallerNotOwnerNorApproved",
            "type": "error"
        },
        {
            "inputs": [],
            "name": "ApprovalQueryForNonexistentToken",
            "type": "error"
        },
        {
            "inputs": [],
            "name": "ApprovalToCurrentOwner",
            "type": "error"
        },
        {
            "inputs": [],
            "name": "ApproveToCaller",
            "type": "error"
        },
        {
            "inputs": [],
            "name": "BalanceQueryForZeroAddress",
            "type": "error"
        },
        {
            "inputs": [],
            "name": "MintToZeroAddress",
            "type": "error"
        },
        {
            "inputs": [],
            "name": "MintZeroQuantity",
            "type": "error"
        },
        {
            "inputs": [],
            "name": "OwnerQueryForNonexistentToken",
            "type": "error"
        },
        {
            "inputs": [],
            "name": "TransferCallerNotOwnerNorApproved",
            "type": "error"
        },
        {
            "inputs": [],
            "name": "TransferFromIncorrectOwner",
            "type": "error"
        },
        {
            "inputs": [],
            "name": "TransferToNonERC721ReceiverImplementer",
            "type": "error"
        },
        {
            "inputs": [],
            "name": "TransferToZeroAddress",
            "type": "error"
        },
        {
            "inputs": [],
            "name": "URIQueryForNonexistentToken",
            "type": "error"
        },
        {
            "anonymous": false,
            "inputs": [
                {
                    "indexed": true,
                    "internalType": "address",
                    "name": "owner",
                    "type": "address"
                },
                {
                    "indexed": true,
                    "internalType": "address",
                    "name": "approved",
                    "type": "address"
                },
                {
                    "indexed": true,
                    "internalType": "uint256",
                    "name": "tokenId",
                    "type": "uint256"
                }
            ],
            "name": "Approval",
            "type": "event"
        },
        {
            "anonymous": false,
            "inputs": [
                {
                    "indexed": true,
                    "internalType": "address",
                    "name": "owner",
                    "type": "address"
                },
                {
                    "indexed": true,
                    "internalType": "address",
                    "name": "operator",
                    "type": "address"
                },
                {
                    "indexed": false,
                    "internalType": "bool",
                    "name": "approved",
                    "type": "bool"
                }
            ],
            "name": "ApprovalForAll",
            "type": "event"
        },
        {
            "anonymous": false,
            "inputs": [
                {
                    "indexed": true,
                    "internalType": "address",
                    "name": "previousOwner",
                    "type": "address"
                },
                {
                    "indexed": true,
                    "internalType": "address",
                    "name": "newOwner",
                    "type": "address"
                }
            ],
            "name": "OwnershipTransferred",
            "type": "event"
        },
        {
            "anonymous": false,
            "inputs": [
                {
                    "indexed": true,
                    "internalType": "address",
                    "name": "from",
                    "type": "address"
                },
                {
                    "indexed": true,
                    "internalType": "address",
                    "name": "to",
                    "type": "address"
                },
                {
                    "indexed": true,
                    "internalType": "uint256",
                    "name": "tokenId",
                    "type": "uint256"
                }
            ],
            "name": "Transfer",
            "type": "event"
        },
        {
            "inputs": [],
            "name": "almostFreeStonerSupply",
            "outputs": [
                {
                    "internalType": "uint256",
                    "name": "",
                    "type": "uint256"
                }
            ],
            "stateMutability": "view",
            "type": "function"
        },
        {
            "inputs": [
                {
                    "internalType": "address",
                    "name": "to",
                    "type": "address"
                },
                {
                    "internalType": "uint256",
                    "name": "tokenId",
                    "type": "uint256"
                }
            ],
            "name": "approve",
            "outputs": [],
            "stateMutability": "nonpayable",
            "type": "function"
        },
        {
            "inputs": [
                {
                    "internalType": "address",
                    "name": "owner",
                    "type": "address"
                }
            ],
            "name": "balanceOf",
            "outputs": [
                {
                    "internalType": "uint256",
                    "name": "",
                    "type": "uint256"
                }
            ],
            "stateMutability": "view",
            "type": "function"
        },
        {
            "inputs": [],
            "name": "disableHotBox",
            "outputs": [],
            "stateMutability": "nonpayable",
            "type": "function"
        },
        {
            "inputs": [],
            "name": "enableHotBox",
            "outputs": [],
            "stateMutability": "nonpayable",
            "type": "function"
        },
        {
            "inputs": [],
            "name": "freeStonerSupply",
            "outputs": [
                {
                    "internalType": "uint256",
                    "name": "",
                    "type": "uint256"
                }
            ],
            "stateMutability": "view",
            "type": "function"
        },
        {
            "inputs": [
                {
                    "internalType": "uint256",
                    "name": "tokenId",
                    "type": "uint256"
                }
            ],
            "name": "getApproved",
            "outputs": [
                {
                    "internalType": "address",
                    "name": "",
                    "type": "address"
                }
            ],
            "stateMutability": "view",
            "type": "function"
        },
        {
            "inputs": [],
            "name": "getStonersBaseURI",
            "outputs": [
                {
                    "internalType": "string",
                    "name": "",
                    "type": "string"
                }
            ],
            "stateMutability": "view",
            "type": "function"
        },
        {
            "inputs": [],
            "name": "hotbox",
            "outputs": [
                {
                    "internalType": "bool",
                    "name": "",
                    "type": "bool"
                }
            ],
            "stateMutability": "view",
            "type": "function"
        },
        {
            "inputs": [
                {
                    "internalType": "address",
                    "name": "owner",
                    "type": "address"
                },
                {
                    "internalType": "address",
                    "name": "operator",
                    "type": "address"
                }
            ],
            "name": "isApprovedForAll",
            "outputs": [
                {
                    "internalType": "bool",
                    "name": "",
                    "type": "bool"
                }
            ],
            "stateMutability": "view",
            "type": "function"
        },
        {
            "inputs": [],
            "name": "maxStonersPerWallet",
            "outputs": [
                {
                    "internalType": "uint256",
                    "name": "",
                    "type": "uint256"
                }
            ],
            "stateMutability": "view",
            "type": "function"
        },
        {
            "inputs": [],
            "name": "name",
            "outputs": [
                {
                    "internalType": "string",
                    "name": "",
                    "type": "string"
                }
            ],
            "stateMutability": "view",
            "type": "function"
        },
        {
            "inputs": [],
            "name": "owner",
            "outputs": [
                {
                    "internalType": "address",
                    "name": "",
                    "type": "address"
                }
            ],
            "stateMutability": "view",
            "type": "function"
        },
        {
            "inputs": [
                {
                    "internalType": "uint256",
                    "name": "tokenId",
                    "type": "uint256"
                }
            ],
            "name": "ownerOf",
            "outputs": [
                {
                    "internalType": "address",
                    "name": "",
                    "type": "address"
                }
            ],
            "stateMutability": "view",
            "type": "function"
        },
        {
            "inputs": [],
            "name": "redeemweedprofits",
            "outputs": [],
            "stateMutability": "payable",
            "type": "function"
        },
        {
            "inputs": [],
            "name": "renounceOwnership",
            "outputs": [],
            "stateMutability": "nonpayable",
            "type": "function"
        },
        {
            "inputs": [
                {
                    "internalType": "address",
                    "name": "from",
                    "type": "address"
                },
                {
                    "internalType": "address",
                    "name": "to",
                    "type": "address"
                },
                {
                    "internalType": "uint256",
                    "name": "tokenId",
                    "type": "uint256"
                }
            ],
            "name": "safeTransferFrom",
            "outputs": [],
            "stateMutability": "nonpayable",
            "type": "function"
        },
        {
            "inputs": [
                {
                    "internalType": "address",
                    "name": "from",
                    "type": "address"
                },
                {
                    "internalType": "address",
                    "name": "to",
                    "type": "address"
                },
                {
                    "internalType": "uint256",
                    "name": "tokenId",
                    "type": "uint256"
                },
                {
                    "internalType": "bytes",
                    "name": "_data",
                    "type": "bytes"
                }
            ],
            "name": "safeTransferFrom",
            "outputs": [],
            "stateMutability": "nonpayable",
            "type": "function"
        },
        {
            "inputs": [
                {
                    "internalType": "address",
                    "name": "operator",
                    "type": "address"
                },
                {
                    "internalType": "bool",
                    "name": "approved",
                    "type": "bool"
                }
            ],
            "name": "setApprovalForAll",
            "outputs": [],
            "stateMutability": "nonpayable",
            "type": "function"
        },
        {
            "inputs": [
                {
                    "internalType": "string",
                    "name": "_newBaseURI",
                    "type": "string"
                }
            ],
            "name": "setStonersBaseURI",
            "outputs": [],
            "stateMutability": "nonpayable",
            "type": "function"
        },
        {
            "inputs": [
                {
                    "internalType": "uint256",
                    "name": "_amount",
                    "type": "uint256"
                }
            ],
            "name": "spawnfreestoners",
            "outputs": [],
            "stateMutability": "nonpayable",
            "type": "function"
        },
        {
            "inputs": [
                {
                    "internalType": "uint256",
                    "name": "_amount",
                    "type": "uint256"
                }
            ],
            "name": "spawnstoners",
            "outputs": [],
            "stateMutability": "payable",
            "type": "function"
        },
        {
            "inputs": [],
            "name": "spliffCost",
            "outputs": [
                {
                    "internalType": "uint256",
                    "name": "",
                    "type": "uint256"
                }
            ],
            "stateMutability": "view",
            "type": "function"
        },
        {
            "inputs": [],
            "name": "stonersBaseURI",
            "outputs": [
                {
                    "internalType": "string",
                    "name": "",
                    "type": "string"
                }
            ],
            "stateMutability": "view",
            "type": "function"
        },
        {
            "inputs": [
                {
                    "internalType": "bytes4",
                    "name": "interfaceId",
                    "type": "bytes4"
                }
            ],
            "name": "supportsInterface",
            "outputs": [
                {
                    "internalType": "bool",
                    "name": "",
                    "type": "bool"
                }
            ],
            "stateMutability": "view",
            "type": "function"
        },
        {
            "inputs": [],
            "name": "symbol",
            "outputs": [
                {
                    "internalType": "string",
                    "name": "",
                    "type": "string"
                }
            ],
            "stateMutability": "view",
            "type": "function"
        },
        {
            "inputs": [
                {
                    "internalType": "uint256",
                    "name": "tokenId",
                    "type": "uint256"
                }
            ],
            "name": "tokenURI",
            "outputs": [
                {
                    "internalType": "string",
                    "name": "",
                    "type": "string"
                }
            ],
            "stateMutability": "view",
            "type": "function"
        },
        {
            "inputs": [],
            "name": "totalSupply",
            "outputs": [
                {
                    "internalType": "uint256",
                    "name": "",
                    "type": "uint256"
                }
            ],
            "stateMutability": "view",
            "type": "function"
        },
        {
            "inputs": [
                {
                    "internalType": "address",
                    "name": "from",
                    "type": "address"
                },
                {
                    "internalType": "address",
                    "name": "to",
                    "type": "address"
                },
                {
                    "internalType": "uint256",
                    "name": "tokenId",
                    "type": "uint256"
                }
            ],
            "name": "transferFrom",
            "outputs": [],
            "stateMutability": "nonpayable",
            "type": "function"
        },
        {
            "inputs": [
                {
                    "internalType": "address",
                    "name": "newOwner",
                    "type": "address"
                }
            ],
            "name": "transferOwnership",
            "outputs": [],
            "stateMutability": "nonpayable",
            "type": "function"
        }
    ],
    "bytecode": "0x60806040526103e8600b55610c80600c556618838370f34000600d55600a600e55600f805460ff191690553480156200003757600080fd5b50604051620021f5380380620021f58339810160408190526200005a91620002d7565b825183908390620000739060029060208501906200017e565b508051620000899060039060208401906200017e565b505060008055506200009b33620000b4565b6001600955620000ab8162000106565b505050620003b7565b600880546001600160a01b038381166001600160a01b0319831681179093556040519116919082907f8be0079c531659141344cd1fd0a4f28419497f9722a3daafe3b4186f6b6457e090600090a35050565b6008546001600160a01b03163314620001655760405162461bcd60e51b815260206004820181905260248201527f4f776e61626c653a2063616c6c6572206973206e6f7420746865206f776e6572604482015260640160405180910390fd5b80516200017a90600a9060208401906200017e565b5050565b8280546200018c9062000364565b90600052602060002090601f016020900481019282620001b05760008555620001fb565b82601f10620001cb57805160ff1916838001178555620001fb565b82800160010185558215620001fb579182015b82811115620001fb578251825591602001919060010190620001de565b50620002099291506200020d565b5090565b5b808211156200020957600081556001016200020e565b600082601f83011262000235578081fd5b81516001600160401b0380821115620002525762000252620003a1565b604051601f8301601f19908116603f011681019082821181831017156200027d576200027d620003a1565b8160405283815260209250868385880101111562000299578485fd5b8491505b83821015620002bc57858201830151818301840152908201906200029d565b83821115620002cd57848385830101525b9695505050505050565b600080600060608486031215620002ec578283fd5b83516001600160401b038082111562000303578485fd5b620003118783880162000224565b9450602086015191508082111562000327578384fd5b620003358783880162000224565b935060408601519150808211156200034b578283fd5b506200035a8682870162000224565b9150509250925092565b600181811c908216806200037957607f821691505b602082108114156200039b57634e487b7160e01b600052602260045260246000fd5b50919050565b634e487b7160e01b600052604160045260246000fd5b611e2e80620003c76000396000f3fe6080604052600436106101cd5760003560e01c806382411a9a116100f7578063ba5485ce11610095578063dc11a68f11610064578063dc11a68f146104c4578063e985e9c5146104da578063f2fde38b14610523578063fbd89c1a1461054357600080fd5b8063ba5485ce14610459578063c136bcbf1461046e578063c87b56dd1461048e578063d334f536146104ae57600080fd5b806395d89b41116100d157806395d89b41146103f1578063a22cb46514610406578063a42aa8e914610426578063b88d4fde1461043957600080fd5b806382411a9a1461039d57806386ffdf26146103b35780638da5cb5b146103d357600080fd5b806342842e0e1161016f57806370a082311161013e57806370a082311461034b578063715018a61461036b5780637aa140e5146103805780638168099b1461039557600080fd5b806342842e0e146102e0578063554807861461030057806361c38d98146103155780636352211e1461032b57600080fd5b8063095ea7b3116101ab578063095ea7b3146102615780630e7145f91461028357806318160ddd1461029d57806323b872dd146102c057600080fd5b806301ffc9a7146101d257806306fdde0314610207578063081812fc14610229575b600080fd5b3480156101de57600080fd5b506101f26101ed366004611ad5565b610558565b60405190151581526020015b60405180910390f35b34801561021357600080fd5b5061021c6105aa565b6040516101fe9190611c95565b34801561023557600080fd5b50610249610244366004611b53565b61063c565b6040516001600160a01b0390911681526020016101fe565b34801561026d57600080fd5b5061028161027c366004611aac565b610680565b005b34801561028f57600080fd5b50600f546101f29060ff1681565b3480156102a957600080fd5b50600154600054035b6040519081526020016101fe565b3480156102cc57600080fd5b506102816102db3660046119be565b610753565b3480156102ec57600080fd5b506102816102fb3660046119be565b610763565b34801561030c57600080fd5b5061021c61077e565b34801561032157600080fd5b506102b2600b5481565b34801561033757600080fd5b50610249610346366004611b53565b61080c565b34801561035757600080fd5b506102b2610366366004611972565b610817565b34801561037757600080fd5b50610281610866565b34801561038c57600080fd5b506102816108d1565b610281610937565b3480156103a957600080fd5b506102b2600c5481565b3480156103bf57600080fd5b506102816103ce366004611b0d565b6109e9565b3480156103df57600080fd5b506008546001600160a01b0316610249565b3480156103fd57600080fd5b5061021c610a5a565b34801561041257600080fd5b50610281610421366004611a72565b610a69565b610281610434366004611b53565b610aff565b34801561044557600080fd5b506102816104543660046119f9565b610df7565b34801561046557600080fd5b50610281610e41565b34801561047a57600080fd5b50610281610489366004611b53565b610eaa565b34801561049a57600080fd5b5061021c6104a9366004611b53565b611066565b3480156104ba57600080fd5b506102b2600d5481565b3480156104d057600080fd5b506102b2600e5481565b3480156104e657600080fd5b506101f26104f536600461198c565b6001600160a01b03918216600090815260076020908152604080832093909416825291909152205460ff1690565b34801561052f57600080fd5b5061028161053e366004611972565b611138565b34801561054f57600080fd5b5061021c611200565b60006301ffc9a760e01b6001600160e01b03198316148061058957506380ac58cd60e01b6001600160e01b03198316145b806105a45750635b5e139f60e01b6001600160e01b03198316145b92915050565b6060600280546105b990611d36565b80601f01602080910402602001604051908101604052809291908181526020018280546105e590611d36565b80156106325780601f1061060757610100808354040283529160200191610632565b820191906000526020600020905b81548152906001019060200180831161061557829003601f168201915b5050505050905090565b60006106478261120f565b610664576040516333d1c03960e21b815260040160405180910390fd5b506000908152600660205260409020546001600160a01b031690565b600061068b82611236565b9050806001600160a01b0316836001600160a01b031614156106c05760405163250fdee360e21b815260040160405180910390fd5b336001600160a01b038216146106f7576106da81336104f5565b6106f7576040516367d9dca160e11b815260040160405180910390fd5b60008281526006602052604080822080546001600160a01b0319166001600160a01b0387811691821790925591518593918516917f8c5be1e5ebec7d5bd14f71427d1e84f3dd0314c0f7b2291e5b200ac8c7c3b92591a4505050565b61075e83838361129e565b505050565b61075e83838360405180602001604052806000815250610df7565b600a805461078b90611d36565b80601f01602080910402602001604051908101604052809291908181526020018280546107b790611d36565b80156108045780601f106107d957610100808354040283529160200191610804565b820191906000526020600020905b8154815290600101906020018083116107e757829003601f168201915b505050505081565b60006105a482611236565b60006001600160a01b038216610840576040516323d3ad8160e21b815260040160405180910390fd5b506001600160a01b031660009081526005602052604090205467ffffffffffffffff1690565b6008546001600160a01b031633146108c55760405162461bcd60e51b815260206004820181905260248201527f4f776e61626c653a2063616c6c6572206973206e6f7420746865206f776e657260448201526064015b60405180910390fd5b6108cf6000611441565b565b6008546001600160a01b0316331461092b5760405162461bcd60e51b815260206004820181905260248201527f4f776e61626c653a2063616c6c6572206973206e6f7420746865206f776e657260448201526064016108bc565b600f805460ff19169055565b6008546001600160a01b031633146109915760405162461bcd60e51b815260206004820181905260248201527f4f776e61626c653a2063616c6c6572206973206e6f7420746865206f776e657260448201526064016108bc565b604051600090339047908381818185875af1925050503d80600081146109d3576040519150601f19603f3d011682016040523d82523d6000602084013e6109d8565b606091505b50509050806109e657600080fd5b50565b6008546001600160a01b03163314610a435760405162461bcd60e51b815260206004820181905260248201527f4f776e61626c653a2063616c6c6572206973206e6f7420746865206f776e657260448201526064016108bc565b8051610a5690600a906020840190611847565b5050565b6060600380546105b990611d36565b6001600160a01b038216331415610a935760405163b06307db60e01b815260040160405180910390fd5b3360008181526007602090815260408083206001600160a01b03871680855290835292819020805460ff191686151590811790915590519081529192917f17307eab39ab6107e8899845ad3d59bd9653f200f220920489ca2b5937696c31910160405180910390a35050565b60026009541415610b525760405162461bcd60e51b815260206004820152601f60248201527f5265656e7472616e637947756172643a207265656e7472616e742063616c6c0060448201526064016108bc565b60026009556000610b666001546000540390565b600f5490915060ff16610bd85760405162461bcd60e51b815260206004820152603460248201527f776520617265207374696c6c206772696e64696e67206f757220776565642e2e6044820152731031b7b6b2903130b1b5903630ba32b91036b0b760611b60648201526084016108bc565b600e5433600090815260056020526040908190205484911c67ffffffffffffffff16610c049190611ca8565b1115610c525760405162461bcd60e51b815260206004820152601d60248201527f752063616e74206d696e74206d6f72652067726565647920626974636800000060448201526064016108bc565b600b54610c5f8383611ca8565b1015610cd35760405162461bcd60e51b815260206004820152603f60248201527f796f752063616e207374696c6c206d696e7420666f7220667265652c20686f7760448201527f206d616e79206a6f696e7473206861766520796f7520736d6f6b65643f3f210060648201526084016108bc565b600c54600b54610ce39190611ca8565b610ced8383611ca8565b1115610d615760405162461bcd60e51b815260206004820152603560248201527f6d61616e20796f75206576656e206d697373656420746865206e6f6e2066726560448201527f65206f6e65732c2075207265616c6c79206e676d69000000000000000000000060648201526084016108bc565b81600d54610d6f9190611cd4565b341015610de45760405162461bcd60e51b815260206004820152603160248201527f796f752074686f7567687420746861742077617320756e636865636b65643f2060448201527f6e61616168207520676f7474612070617900000000000000000000000000000060648201526084016108bc565b610dee3383611493565b50506001600955565b610e0284848461129e565b6001600160a01b0383163b15610e3b57610e1e848484846114ad565b610e3b576040516368d2bf6b60e11b815260040160405180910390fd5b50505050565b6008546001600160a01b03163314610e9b5760405162461bcd60e51b815260206004820181905260248201527f4f776e61626c653a2063616c6c6572206973206e6f7420746865206f776e657260448201526064016108bc565b600f805460ff19166001179055565b60026009541415610efd5760405162461bcd60e51b815260206004820152601f60248201527f5265656e7472616e637947756172643a207265656e7472616e742063616c6c0060448201526064016108bc565b60026009556000610f116001546000540390565b600f5490915060ff16610f835760405162461bcd60e51b815260206004820152603460248201527f776520617265207374696c6c206772696e64696e67206f757220776565642e2e6044820152731031b7b6b2903130b1b5903630ba32b91036b0b760611b60648201526084016108bc565b600e5433600090815260056020526040908190205484911c67ffffffffffffffff16610faf9190611ca8565b1115610ffd5760405162461bcd60e51b815260206004820152601d60248201527f752063616e74206d696e74206d6f72652067726565647920626974636800000060448201526064016108bc565b600b5461100a8383611ca8565b1115610de45760405162461bcd60e51b815260206004820152602560248201527f796f75206d6973736564206f7574206f6e207468652066726565206f6e65732c604482015264206e676d6960d81b60648201526084016108bc565b60606110718261120f565b6110bd5760405162461bcd60e51b815260206004820152601d60248201527f546869732073746f6e657220646f65736e742065786973742c2068756800000060448201526064016108bc565b60006110c7611200565b604080518082019091526005815264173539b7b760d91b60208201528151919250906111025760405180602001604052806000815250611130565b600a61110d856115a4565b8260405160200161112093929190611bb3565b6040516020818303038152906040525b949350505050565b6008546001600160a01b031633146111925760405162461bcd60e51b815260206004820181905260248201527f4f776e61626c653a2063616c6c6572206973206e6f7420746865206f776e657260448201526064016108bc565b6001600160a01b0381166111f75760405162461bcd60e51b815260206004820152602660248201527f4f776e61626c653a206e6577206f776e657220697320746865207a65726f206160448201526564647265737360d01b60648201526084016108bc565b6109e681611441565b6060600a80546105b990611d36565b60008054821080156105a4575050600090815260046020526040902054600160e01b161590565b60008160005481101561128557600081815260046020526040902054600160e01b8116611283575b8061127c57506000190160008181526004602052604090205461125e565b9392505050565b505b604051636f96cda160e11b815260040160405180910390fd5b60006112a982611236565b9050836001600160a01b0316816001600160a01b0316146112dc5760405162a1148160e81b815260040160405180910390fd5b6000336001600160a01b03861614806112fa57506112fa85336104f5565b8061131557503361130a8461063c565b6001600160a01b0316145b90508061133557604051632ce44b5f60e11b815260040160405180910390fd5b6001600160a01b03841661135c57604051633a954ecd60e21b815260040160405180910390fd5b600083815260066020908152604080832080546001600160a01b03191690556001600160a01b038881168452600583528184208054600019019055871683528083208054600101905585835260049091529020600160e11b4260a01b8617811790915582166113f957600183016000818152600460205260409020546113f75760005481146113f75760008181526004602052604090208390555b505b82846001600160a01b0316866001600160a01b03167fddf252ad1be2c89b69c2b068fc378daa952ba7f163c4a11628f55a4df523b3ef60405160405180910390a45050505050565b600880546001600160a01b038381166001600160a01b0319831681179093556040519116919082907f8be0079c531659141344cd1fd0a4f28419497f9722a3daafe3b4186f6b6457e090600090a35050565b610a568282604051806020016040528060008152506116d6565b604051630a85bd0160e11b81526000906001600160a01b0385169063150b7a02906114e2903390899088908890600401611c63565b602060405180830381600087803b1580156114fc57600080fd5b505af192505050801561152c575060408051601f3d908101601f1916820190925261152991810190611af1565b60015b611587573d80801561155a576040519150601f19603f3d011682016040523d82523d6000602084013e61155f565b606091505b50805161157f576040516368d2bf6b60e11b815260040160405180910390fd5b805181602001fd5b6001600160e01b031916630a85bd0160e11b149050949350505050565b6060816115c85750506040805180820190915260018152600360fc1b602082015290565b8160005b81156115f257806115dc81611d71565b91506115eb9050600a83611cc0565b91506115cc565b60008167ffffffffffffffff81111561161b57634e487b7160e01b600052604160045260246000fd5b6040519080825280601f01601f191660200182016040528015611645576020820181803683370190505b5090505b84156111305761165a600183611cf3565b9150611667600a86611d8c565b611672906030611ca8565b60f81b81838151811061169557634e487b7160e01b600052603260045260246000fd5b60200101907effffffffffffffffffffffffffffffffffffffffffffffffffffffffffffff1916908160001a9053506116cf600a86611cc0565b9450611649565b6000546001600160a01b0384166116ff57604051622e076360e81b815260040160405180910390fd5b8261171d5760405163b562e8dd60e01b815260040160405180910390fd5b6001600160a01b03841660008181526005602090815260408083208054680100000000000000018902019055848352600490915290204260a01b86176001861460e11b1790558190818501903b156117f2575b60405182906001600160a01b038816906000907fddf252ad1be2c89b69c2b068fc378daa952ba7f163c4a11628f55a4df523b3ef908290a46117bb60008784806001019550876114ad565b6117d8576040516368d2bf6b60e11b815260040160405180910390fd5b8082106117705782600054146117ed57600080fd5b611837565b5b6040516001830192906001600160a01b038816906000907fddf252ad1be2c89b69c2b068fc378daa952ba7f163c4a11628f55a4df523b3ef908290a48082106117f3575b506000908155610e3b9085838684565b82805461185390611d36565b90600052602060002090601f01602090048101928261187557600085556118bb565b82601f1061188e57805160ff19168380011785556118bb565b828001600101855582156118bb579182015b828111156118bb5782518255916020019190600101906118a0565b506118c79291506118cb565b5090565b5b808211156118c757600081556001016118cc565b600067ffffffffffffffff808411156118fb576118fb611dcc565b604051601f8501601f19908116603f0116810190828211818310171561192357611923611dcc565b8160405280935085815286868601111561193c57600080fd5b858560208301376000602087830101525050509392505050565b80356001600160a01b038116811461196d57600080fd5b919050565b600060208284031215611983578081fd5b61127c82611956565b6000806040838503121561199e578081fd5b6119a783611956565b91506119b560208401611956565b90509250929050565b6000806000606084860312156119d2578081fd5b6119db84611956565b92506119e960208501611956565b9150604084013590509250925092565b60008060008060808587031215611a0e578081fd5b611a1785611956565b9350611a2560208601611956565b925060408501359150606085013567ffffffffffffffff811115611a47578182fd5b8501601f81018713611a57578182fd5b611a66878235602084016118e0565b91505092959194509250565b60008060408385031215611a84578182fd5b611a8d83611956565b915060208301358015158114611aa1578182fd5b809150509250929050565b60008060408385031215611abe578182fd5b611ac783611956565b946020939093013593505050565b600060208284031215611ae6578081fd5b813561127c81611de2565b600060208284031215611b02578081fd5b815161127c81611de2565b600060208284031215611b1e578081fd5b813567ffffffffffffffff811115611b34578182fd5b8201601f81018413611b44578182fd5b611130848235602084016118e0565b600060208284031215611b64578081fd5b5035919050565b60008151808452611b83816020860160208601611d0a565b601f01601f19169290920160200192915050565b60008151611ba9818560208601611d0a565b9290920192915050565b600080855482600182811c915080831680611bcf57607f831692505b6020808410821415611bef57634e487b7160e01b87526022600452602487fd5b818015611c035760018114611c1457611c40565b60ff19861689528489019650611c40565b60008c815260209020885b86811015611c385781548b820152908501908301611c1f565b505084890196505b505050505050611c59611c538287611b97565b85611b97565b9695505050505050565b60006001600160a01b03808716835280861660208401525083604083015260806060830152611c596080830184611b6b565b60208152600061127c6020830184611b6b565b60008219821115611cbb57611cbb611da0565b500190565b600082611ccf57611ccf611db6565b500490565b6000816000190483118215151615611cee57611cee611da0565b500290565b600082821015611d0557611d05611da0565b500390565b60005b83811015611d25578181015183820152602001611d0d565b83811115610e3b5750506000910152565b600181811c90821680611d4a57607f821691505b60208210811415611d6b57634e487b7160e01b600052602260045260246000fd5b50919050565b6000600019821415611d8557611d85611da0565b5060010190565b600082611d9b57611d9b611db6565b500690565b634e487b7160e01b600052601160045260246000fd5b634e487b7160e01b600052601260045260246000fd5b634e487b7160e01b600052604160045260246000fd5b6001600160e01b0319811681146109e657600080fdfea26469706673582212203b1c3e6aa15eb06bcafc9bed4165fcd79019c20d5524bb093bbd1046c6aabbb764736f6c63430008040033",
    "linkReferences": {},
    "deployedLinkReferences": {}
}